:100000000C9446000C9458000C9458000C94580022
:100010000C9458000C9458000C9458000C94580000
:100020000C9458000C9458000C9458000C945800F0
:100030000C9458000C9458000C9458000C945800E0
:100040000C9458000C9458000C9458000C945800D0
:100050000C9458000C9458000C9458000C945800C0
:100060000C9458000C9458000C9458000C945800B0
:100070000C9464020C9458000C9458000C94580092
:100080000C94B9020C9458000C94580011241FBE13
:10009000CFEFD0E4DEBFCDBF11E0A0E0B1E001C002
:1000A0001D92AF3DB107E1F70E9484010C94D80482
:1000B0000C94000010927C00EAE7F0E080818760F9
:1000C00080838081806880830895ECE7F0E010826F
:1000D00090818770982B908380917A0086FD1DC057
:1000E0006091780070917900709301016093000134
:1000F000EAE7F0E080818064808380E090E00E9405
:10010000D3032AE137E64CE950E40E9439040E9407
:10011000A703709301016093000180910001909109
:100120000101089590E09C01220F331F820F931F5D
:10013000FC01EE0FFF1FEE0FFF1FEE0FFF1FE81B6E
:10014000F90BE65DFE4F2381348181819281820F1C
:10015000931F25813681820F931F27813085820F5F
:10016000931F21853285820F931F23853485820F4B
:10017000931F25853685820F931F27853089820F2F
:10018000931F21893289820F931F23893489820F1B
:10019000931F6AE070E00E94C404609304017093AE
:1001A0000501862F972F0895EF92FF920F931F93CB
:1001B000CF93DF9300E010E00F2EFAE2EF2EF1E094
:1001C000FF2EF02DC0910201D0910301802F0E94DB
:1001D0006500AE01440F551F9801220F331F200FF9
:1001E000311FE901CC0FDD1FCC0FDD1FCC0FDD1F50
:1001F000C21BD30BC40FD51FCE0DDF1D9A8389837D
:100200000F5F1F4F08301105E9F6809102019091B0
:1002100003018930910528F0109203011092020128
:1002200005C001969093030180930201DF91CF9165
:100230001F910F91FF90EF90089528980895289AA4
:1002400008950E9430019093070180930601803F3A
:10025000910518F00E941D0108950E941F01089544
:1002600080E00E9492009C01255E314030930B019A
:1002700020930A011092090110920801822F932FF6
:1002800008951F930E9430016AE070E00E94C40448
:10029000182F6093D201862F0E941203812F0E9493
:1002A00012031F91089580E090E00E9492008093D5
:1002B000D30181E090E00E9492008093D40182E01B
:1002C00090E00E9492008093D50183E090E00E942C
:1002D00092008093D60184E090E00E949200809387
:1002E000D70185E090E00E9492008093D80186E0DB
:1002F00090E00E9492008093D90187E090E00E94F4
:1003000092008093DA0108955F926F927F928F92AC
:100310009F92AF92BF92CF92DF92EF92FF920F9394
:100320001F93CF93DF9310920D0110920C01109246
:100330000E011092100110920F01109211011092F3
:1003400013011092120110921501109214011092D3
:100350001701109216010E942F0300E077246624F3
:10036000552410E099249394C5E0D0E088240F2E02
:10037000FAE0EF2EFF24F02D0F2EF4E1CF2EDD2436
:10038000F02D0F2EF4E6AF2EBB24F02D0E94F902C3
:100390009093100180930F010E94FE02809311013F
:1003A00020910C0130910D0180910F01909110016D
:1003B0002817390759F00E94660380910F01909128
:1003C000100190930D0180930C01192D80910F0164
:1003D00090911001BE010E94C404009731F41123D2
:1003E00021F00E947003592C182D80910F019091DB
:1003F0001001B7010E94C404009739F4552029F078
:100400000E947A03792C692C582C80910F019091CD
:100410001001B6010E94C404009729F4662019F067
:100420000E948403682C80910F0190911001B50106
:100430000E94C404009731F4772021F00E949803B1
:100440000F5F782C90910E0180911101981708F0A0
:100450009DCF0A3008F49ACF0E94A4038091110125
:1004600080930E01082D92CF82E18093CC0080937F
:10047000CD0086E08093CA0088E98093C900089582
:10048000E8ECF0E080818823ECF78091CE000895BD
:10049000E8ECF0E0908195FFFDCF8093CE000895C9
:1004A0000F931F93182F062F8AEA0E944802812F6C
:1004B0000E944802802F0E944802802F810F0E94D4
:1004C00048021F910F9108951F920F920FB60F923D
:1004D0000BB60F9211242F933F934F935F936F931B
:1004E0007F938F939F93AF93BF93EF93FF930E945C
:1004F00040020E9440020E9440020E9440020E946C
:100500004002FF91EF91BF91AF919F918F917F91A9
:100510006F915F914F913F912F910F900BBE0F9074
:100520000FBE0F901F90189584B5836884BD85B564
:10053000816085BD239A0895E0E9F0E080818068BC
:100540008083E1E9F0E08081886080838081816040
:10055000808381E08093990084EF809398001092CB
:10056000950010929400E1E7F0E080818360808341
:1005700008951F920F920FB60F9211242F938F930D
:100580009F931092950010929400809118018F5FB4
:1005900080931801883228F18091DB019091DC0171
:1005A00001969093DC018093DB0123E0883E920763
:1005B000B0F08091DD018F5F8093DD011092DC014E
:1005C0001092DB018C3358F08091DE018F5F8093B5
:1005D000DE011092DD018C3310F01092DE011092DA
:1005E00018019F918F912F910F900FBE0F901F9028
:1005F00018958091DB019091DC0108958091DD01D7
:1006000008958091DD0108951092C50082E88093DD
:10061000C40088E18093C100E2ECF0E08081866054
:1006200080830895E0ECF0E0908195FFFDCF80930A
:10063000C6000895E0ECF0E080818823ECF780911B
:10064000C60008958091C000882344F4A6ECB0E071
:10065000E0ECF0E08C9180818823E4F3089515B8F4
:1006600004B600FE04C081E0809319011FC004B6E7
:1006700001FE04C082E08093190118C004B602FE96
:1006800004C083E08093190111C004B603FE04C0C6
:1006900084E0809319010AC004B604FE04C085E01A
:1006A0008093190103C086E08093190184B7807E8E
:1006B00084BF0E949C020E9494020E9404030E9434
:1006C00034020E945A00789480E0089580911A01C3
:1006D00090911B01019690931B0180931A0108953C
:1006E00080911C0190911D01019690931D018093B2
:1006F0001C01089580911E0190911F010196909315
:100700001F0180931E010895809120019091210185
:1007100001969093210180932001089580912201F8
:1007200090912301019690932301809322010895D3
:100730008091240190912501019690932501809349
:1007400024010E94D40008950E945301089570D09E
:1007500088F09F5790F0B92F9927B751A0F0D1F0AA
:10076000660F771F881F991F1AF0BA95C9F712C034
:10077000B13081F077D0B1E0089574C0672F782F41
:100780008827B85F39F0B93FCCF3869577956795A0
:10079000B395D9F73EF490958095709561957F4F0C
:1007A0008F4F9F4F0895E89409C097FB3EF49095B2
:1007B0008095709561957F4F8F4F9F4F9923A9F03A
:1007C000F92F96E9BB279395F695879577956795C9
:1007D000B795F111F8CFFAF4BB0F11F460FF1BC00D
:1007E0006F5F7F4F8F4F9F4F16C0882311F096E9A0
:1007F00011C0772321F09EE8872F762F05C066234E
:1008000071F096E8862F70E060E02AF09A95660F06
:10081000771F881FDAF7880F9695879597F90895BF
:1008200057FD9058440F551F59F05F3F71F04795A1
:10083000880F97FB991F61F09F3F79F08795089586
:10084000121613061406551FF2CF4695F1DF08C0A5
:10085000161617061806991FF1CF869571056105C2
:1008600008940895E894BB2766277727CB0197F96A
:1008700008950BD078C069D028F06ED018F0952379
:1008800009F05AC05FC01124EECFCADFA0F3959FD4
:10089000D1F3950F50E0551F629FF001729FBB2767
:1008A000F00DB11D639FAA27F00DB11DAA1F649F13
:1008B0006627B00DA11D661F829F2227B00DA11DC6
:1008C000621F739FB00DA11D621F839FA00D611D4C
:1008D000221F749F3327A00D611D231F849F600D6D
:1008E000211D822F762F6A2F11249F5750408AF0A6
:1008F000E1F088234AF0EE0FFF1FBB1F661F771F32
:10090000881F91505040A9F79E3F510570F014C0C8
:10091000AACF5F3FECF3983EDCF386957795679519
:10092000B795F795E7959F5FC1F7FE2B880F911D4F
:100930009695879597F9089597F99F6780E870E0F5
:1009400060E008959FEF80EC089500240A94161645
:10095000170618060906089500240A9412161306AD
:10096000140605060895092E0394000C11F488233B
:1009700052F0BB0F40F4BF2B11F460FF04C06F5F57
:100980007F4F8F4F9F4F0895AA1BBB1B51E107C09C
:10099000AA1FBB1FA617B70710F0A61BB70B881F0F
:1009A000991F5A95A9F780959095BC01CD0108959E
:0409B000F894FFCFE9
:00000001FF
